:100000000C9446000C9465000C9465000C946500FB
:100010000C9465000C9465000C9465000C946500CC
:100020000C9465000C9465000C9465000C946500BC
:100030000C9465000C94D9010C9465000C94650037
:100040000C9465000C9465000C9465000C9465009C
:100050000C9465000C9465000C9465000C9465008C
:100060000C9465000C9465000C9465000C9465007C
:100070000C9465000C9465000C9465000C9465006C
:100080000C9465000C9465000C94650011241FBE4F
:10009000CFEFD0E4DEBFCDBF11E0A0E0B1E0E0E9FA
:1000A000F7E000E00BBF02C007900D92AE31B10740
:1000B000D9F721E0AEE1B1E001C01D92A932B2074B
:1000C000E1F70E9460030C94C6030C940000CF93E8
:1000D000DF93CDB7DEB781E00E948E000000DF9194
:1000E000CF910895CF93DF93CDB7DEB784E690E04C
:1000F0000E94320188E30E948E0086E00E948E00FA
:100100008FE00E948E0081E00E948E008AE090E0E5
:100110000E9432010000DF91CF910895CF93DF93C9
:100120001F92CDB7DEB789838BE290E02BE230E0FF
:10013000F90120812F7BFC01208388E290E0298156
:10014000FC0120838BE290E02BE230E0F90120817A
:100150002068FC01208300008BE290E02BE230E07D
:10016000F90120812F77FC01208382E090E00E943A
:10017000320100000F90DF91CF910895CF93DF936C
:100180001F92CDB7DEB789838BE290E02BE230E09F
:10019000F90120812064FC01208388E290E029811C
:1001A000FC0120838BE290E02BE230E0F90120811A
:1001B0002068FC01208300008BE290E02BE230E01D
:1001C000F90120812F77FC01208381E090E00E94DB
:1001D000320100000F90DF91CF910895CF93DF930C
:1001E00000D000D0CDB7DEB78A837C836B830E94BA
:1001F00067008A81898311C0898191E0980F998372
:100200000E941B018B819C819C012F5F3F4F3C838F
:100210002B83FC0180810E94BE008B819C81FC01AC
:100220008081882349F700000F900F900F900F9066
:10023000DF91CF910895CF93DF931F92CDB7DEB7B3
:1002400089838981813128F4898181580E948E00B7
:1002500004C0898181550E948E0000000F90DF91BB
:10026000CF910895CF93DF9300D000D000D0CDB7C9
:10027000DEB79E838D831A82198213C01C821B8273
:1002800006C000008B819C8101969C838B838B81AF
:100290009C8187309340ACF389819A8101969A833F
:1002A000898329813A818D819E812817390734F30A
:1002B000000026960FB6F894DEBF0FBECDBFDF91CB
:1002C000CF910895CF93DF9300D01F92CDB7DEB7C3
:1002D00089837B836A8389818A3031F48A819B8117
:1002E000BC018DE00E94620180EC90E0FC01808105
:1002F000882F90E080729927892BB1F386EC90E0EB
:100300002981FC01208380E090E00F900F900F90F6
:10031000DF91CF910895CF93DF93CDB7DEB781E81A
:1003200090E02BE0FC01208388E890E02DE730E0AE
:10033000FC01318320838FE690E022E0FC012083E2
:1003400084E890E0FC011182108280910E0190916E
:100350000F01A0911001B091110180931F019093A2
:100360002001A0932101B09322018FE590E02FE5B9
:1003700030E0F90120812068FC0120830000DF913A
:10038000CF910895CF93DF93CDB7DEB781E890E0AA
:10039000FC0110820000DF91CF910895CF93DF938D
:1003A000CDB7DEB781E080931E010000DF91CF91D1
:1003B00008951F920F9200905F000F9211240090F9
:1003C0005B000F922F933F934F935F936F937F93B5
:1003D0008F939F93AF93BF93EF93FF93CF93DF934D
:1003E000CDB7DEB780911F0190912001A09121012E
:1003F000B09122010197A109B10980931F01909347
:100400002001A0932101B093220180911F019091BE
:100410002001A0912101B0912201892B8A2B8B2BE5
:1004200091F40E94CE0180910E0190910F01A09154
:100430001001B091110180931F0190932001A093AE
:100440002101B09322010000DF91CF91FF91EF9144
:10045000BF91AF919F918F917F916F915F914F91DC
:100460003F912F910F9000925B000F9000925F00E0
:100470000F901F901895CF93DF9300D000D0CDB789
:10048000DEB769837A838B839C8389819A81AB8170
:10049000BC8180930E0190930F01A0931001B09343
:1004A000110180910E0190910F01A0911001B09166
:1004B000110180931F0190932001A0932101B0931B
:1004C000220100000F900F900F900F90DF91CF91BD
:1004D0000895CF93DF93CDB7DEB780912701909138
:1004E00028018230910509F454C08330910528F425
:1004F000009759F00197B1F0B6C08330910509F427
:1005000067C0049709F482C0AEC010922301109214
:1005100024011092250181E090E0909328018093BE
:100520002701A1C080912601882F90E08170992732
:10053000892B41F180912401882F90E08E5E9E4F9F
:10054000FC018081823061F480911601893020F4B1
:10055000809116018F5F01C089E0809316010BC066
:1005600080911601882321F080911601815001C0ED
:1005700080E08093160182E090E0909328018093C0
:10058000270171C081E090E09093280180932701BA
:100590006AC080912601882F90E081709927892B6D
:1005A00039F082E090E0909328018093270156C0B3
:1005B00080912601882F90E081709927892B09F07E
:1005C0004DC083E090E0909328018093270146C0BE
:1005D00080912601882F90E081709927892B39F42A
:1005E00083E090E0909328018093270139C08091A7
:1005F0002601882F90E081709927892B89F184E06A
:1006000090E090932801809327012AC080912601D1
:10061000882F90E081709927892B31F084E090E059
:10062000909328018093270180912601882F90E0E4
:1006300081709927892BB1F4109225011092240121
:1006400080911601893018F085E08093160181E0D1
:1006500090E0909328018093270104C0000003C01C
:10066000000001C0000080912701909128010197AE
:1006700009F022C0809125018F5F80932501809130
:100680002501843070F081E0809325018091240160
:100690008F5F8093240180912401843010F01092A8
:1006A000240180912401882F90E08E5E9E4FFC01F2
:1006B00080818093230100000000DF91CF91089595
:1006C000CF93DF93CDB7DEB781E290E0FC011082DB
:1006D00082E290E02FEFFC01208384E290E02FEF94
:1006E000FC01208385E290E0FC01108287E290E02B
:1006F0002FEFFC01208388E290E0FC0110828AE267
:1007000090E02FEFFC0120838BE290E0FC0110824F
:1007100064E670E080E090E00E943B020E948B0162
:1007200010922301109224011092250110922601AB
:1007300010922801109227010E94720080E290E03E
:10074000FC0180818095809326010E94690285E2E8
:1007500090E020912301FC0120830E94670080919A
:100760001601893031F467E171E081E00E94EE000A
:1007700005C080911601805D0E94BE00000080913E
:100780001E018823E1F310921E01D8CFF894FFCF09
:1007900000000002000000006201000000000100F3
:0E07A0000000010204020557494E4E4552006A
:00000001FF
